:020000040800F2
:10000000001C0020D1000008252D0008BD1D00089F
:1000100000000000000000000000000000000000E0
:10002000000000000000000000000000292D000872
:100030000000000000000000272D00082B2D000804
:10004000E3000008E3000008E3000008E300000804
:10005000E3000008E3000008E3000008E3000008F4
:10006000E300000861080008E3000008E30000085E
:10007000E3000008E3000008E3000008E3000008D4
:10008000E3000008E3000008E3000008E3000008C4
:10009000E3000008E3000008E3000008E3000008B4
:1000A000E3000008E3000008E30000088D340008C6
:1000B000E3000008E3000008E30000080348854669
:1000C00000F0CEFA00480047253F0008001C002041
:1000D0000448804704480047FEE7FEE7FEE7FEE7E6
:1000E000FEE7FEE79F2D0008BD00000830B50B4677
:1000F000014600202022012409E00D46D5409D4202
:1001000005D31D469540491B254695404019154687
:10011000521E002DF1DC30BDF0B51FB406460020A4
:1001200082B005464024019100901BE001992246CF
:100130000F46304600F085F8049A059B801A9941D5
:1001400010D310461946224600F06BF8361A8F413C
:100150000197224601200021009F00F062F8381824
:100160004D4100902046641E0028DFDC019B009872
:100170002946324607B0F0BD03460B439B0703D028
:1001800009E008C9121F08C0042AFAD203E00B785C
:100190000370401C491C521EF9D27047D2B201E0D4
:1001A0000270401C491EFBD270470022F6E710B5D2
:1001B00013460A4604461946FFF7F0FF204610BDD5
:1001C00030B505462A460B4610781C78521C5B1C3D
:1001D000002801D0A042F7D0002C03D0002802D084
:1001E0006D1CEFE7284630BD421C0178401C0029F9
:1001F000FBD1801A704703460A780270401C491CE4
:10020000002AF9D11846704770B5064603F0D8F9B0
:10021000046805460A220021304600F023F82C60CD
:1002200070BD10B5202A04DB0146203A9140002021
:1002300010BD914020239C1A0346E340194390408F
:1002400010BD10B5202A04DB0846203AD04000211A
:1002500010BD0B46D340D0402024A21A9140084341
:10026000194610BDF7B5009C0F4600262578641C82
:10027000002D05D000F01AFA0068405DC007F5D1E6
:100280002B2D02D02D2D18D0641E39462046029AFF
:1002900000F010FA002F04D03968A14201D1009972
:1002A00039607105022400290BDA4042002803DD81
:1002B00003F086F90460A007FEBD0120800206431A
:1002C000E3E70028F8DA03F07BF904600048FEBD9C
:1002D000FFFFFF7FF0B507460846584087B0C00FC4
:1002E000049048000E46590040084908BC1A88414D
:1002F00005D2384631461E4617460B460246580080
:10030000400810434CD0300D039040055900400D7B
:10031000490D0590401A0290402872DA1803012115
:10032000000B09050843019004980092002805D0AD
:100330000199524200208841009201900298402188
:100340000A1A01990098FFF76CFF05460C466B46A8
:1003500007CB00F097F9C0197141039A0E0D0023E5
:10036000D71756401A467A40164344D0049A002ABA
:100370002DD0029A012A039A15DC1205C01A914168
:1003800001263605001C7141D20F059ED20700934D
:10039000019202962A46234600F0ECF907B0F0BD20
:1003A00038463146FAE71605224A0F46B218C01AF7
:1003B000B74101210905001C4F4100187F4111463A
:1003C00018187941E20F10436D19644113E0E207F8
:1003D0006D0815436408C2071443039A01261205E9
:1003E000C01A91413605001C7141CE0740083043C8
:1003F0004908C01851412A46234600F0AEF9CDE71E
:10040000FFE7049801224000C117121A00238B4114
:1004100004983146C417381AA141EEE730B40124DC
:10042000E407634030BC55E730B40124E407614081
:1004300030BC4FE70000E0FFF0B51FB488B00B9967
:100440000998002448400999C00F490049080991BA
:10045000C0070B990090490049080B910999089829
:10046000A64608431CD00B990A98084318D009984F
:1004700001244000420D4800410D09982405000365
:10048000000B204309900B980003000B20430B90B6
:1004900050181C494018002201901446104605E0EF
:1004A000002001460DB0F0BD032801DA034600E04C
:1004B00003239C46C11A0AAE0AE05F0008ADED5B5B
:1004C0004F00F75B7D430027AA187C41491C5B1E47
:1004D0006145F2DD410004AB5A522104120C0A437B
:1004E000240C401C0828DFDB01980290009970461C
:1004F00001910090059B049A0799069800F03AF93B
:10050000D0E700000DFCFFFFF0B50C465C4085B065
:10051000E40FE40703944C00002664085900944655
:10052000490802460296224321D062460A431ED061
:100530006200570D4A000E032303550D01240246A5
:100540002C492405781B1B0B360B401823432643EC
:10055000614600901C46501AB44103D30098401CD9
:10056000009002E0921800985B41002803DA002016
:10057000014605B0F0BD0020012109050746864669
:1005800011E064461D46141BB54106D36546521B57
:10059000B341744607430C43A646CD0740084908BB
:1005A000284392185B4105460D43EAD11046184393
:1005B00013D06046194650407140084306D060464B
:1005C000101AB34106D20122002306E000220123C3
:1005D000DB0702E00122D243531000987446010564
:1005E000381C6141029C039D0019694100F0B5F877
:1005F000BFE70000FD0300004A0009030123090BC7
:100600001B0519430A4B10B5520D9A4202DA00201D
:10061000014610BD064B34339A4203DC9A1AFFF7A9
:1006200010FE10BD034BD218FFF7FBFD10BD0000FC
:10063000FF030000CDFBFFFF10B5002904DB012400
:10064000E40740428C412146002B04DB1C46012379
:10065000DB075242A341994200D1904210BD0000F5
:10066000064C0125064E05E0E36807CC2B430C3C05
:1006700098471034B442F7D3FFF724FDF042000846
:100680001043000810B5202A06DBCB170846203A95
:100690001041C1170B4306E00B461341D040202404
:1006A000A21A91400843194610BD00000048704747
:1006B000EC420008F7B582B0029C00272078641C49
:1006C00015460197302802D0002D15D015E020786E
:1006D0000127641C782804D0582802D0002D09D0A6
:1006E0000BE0002D01D0102D07D100271025207818
:1006F000641C02E0082500E00A250026009610E0B0
:100700000099012769430818020C294680B27143F9
:1007100000908E183804864201D301200190207881
:10072000641C294600F078F80028E9DA03980028CC
:1007300005D0002F01D0641E00E0029C04600198E7
:10074000002806D002F03CFF02210160C81E05B05F
:10075000F0BD009930040843F9E710B5002B08DA22
:100760000024401C614192185B411A4301D14008AA
:10077000400010BDF0B51FB482B005460C0003D098
:10078000084602F0E3FE02E002F0E0FE20300246FE
:10079000009021462846FFF744FD049B059A044635
:1007A0000F4618431143084314D0184610431BD07A
:1007B000009840210A1A18460599FFF742FD0546A0
:1007C0000E46009A05990498FFF72BFD084305D0C3
:1007D000012004E02046394607B0F0BD0020C117D3
:1007E00005430E432C43374300990E986305401A86
:1007F0007905E40A00220C43FD0A0A3002D50020E4
:100800000146E9E70105101969410C9C0D9D00198D
:100810006941FFF7A2FFDFE73A2800D230382023F2
:1008200002469A43412A01D310463738884201D301
:100830000020C043704710B500F0DAF910BD034640
:1008400010B50020002B0AD0002205E08C4201D117
:10085000401CC0B2521C92B29C5C002CF6D110BD60
:1008600010B5024800F0D0F810BD00004C01002087
:1008700010B50446006C0949800880004018606487
:10088000207814210838FFF731FC04498031A16435
:10089000C106C90E01208840E06410BD0008024076
:1008A0000179084B8906890E8A00D2180265054A2B
:1008B0004432491E42658A07920F012191408165A9
:1008C00070470000FC080240F0B5846CC56C6560A0
:1008D000046D002C02D0446D856D65600B4C65681D
:1008E000066C1C273E400127B7403D436560046805
:1008F00063608368102B036803D099600068C2604E
:10090000F0BD9A600068C160F0BD000000000240C8
:1009100072B6FEE7F0B5002808D0014620314A79CA
:10092000022A05D00422C263002008710120F0BD14
:10093000026813680E24A3431360426C1468FF23FB
:1009400001339C43146002681468640864001460F6
:100950000C4A5568066C1C24264001242746B740E3
:100960003D435560826CC56C5560026D002A05D010
:1009700015689D431560826D406D42604C7100208A
:100980000871F0BD00000240F8B500240246203294
:100990005179022903D00421C16301242DE00168AB
:1009A0000B680E25AB430B6001680B685B085B00AE
:1009B0000B60416C0B68FF250135AB430B601049A0
:1009C0004D68066C1C231E4001231F46B7403D4363
:1009D0004D60816CC56C4D60016D002906D00E68BC
:1009E0001D02AE430E60416D856D4D605371002157
:1009F0001171816B002900D088472046F8BD0000A6
:100A000000000240C06B7047F0B42C490C680268CB
:100A10001368056C1C273D400426AE40264211D0C9
:100A20005E070FD513689B0603D4146804239C4308
:100A300014604B68046C04223C40A24013434B609A
:100A4000016B1CE00227AF40064627402036002FEE
:100A500019D09F0717D513689B0605D413680A247D
:100A6000A3431360012272714B68046C1C22144072
:100A70000222A24013434B6000213171C16A002958
:100A80001AD0F0BC08470827AF40274214D01B07F4
:100A900012D513680E24A34313604B68046C1C2208
:100AA000144001221546A5402B434B60C26372716E
:100AB00000213171416BE2E7F0BC70470000024059
:100AC00070B504003FD02548256814212818FFF789
:100AD0000DFB8000206402202646203670712868B5
:100AE0001F4908402860E168A068626908432169DD
:100AF00011430843A1690843E1690843216A084397
:100B000021680A68104308602046FFF7B1FE012102
:100B1000A06889030025884200D165602079616C56
:100B20008006800E0860A06CE16C41606068401E29
:100B300003280AD82046FFF7B3FE206D0560606DDC
:100B4000A16D416004E0012070BD25656565A56566
:100B5000E563012070713571002070BDF8FFFDBFA5
:100B60000F80FFFFF8B504468C4620300179002540
:100B700001290BD00126067141790027012907D0F0
:100B80008021E163077101252846F8BD0220F8BDE8
:100B900002214171E763206801684908490001604A
:100BA00061462046FFF790FE206B00282068016810
:100BB00001D00E2205E00422914301602068016803
:100BC0000A2211430160606C0168CA03074902D51B
:100BD00002680A430260206D002802D002680A43BE
:100BE00002602068016831430160CDE70001000028
:100BF00070B5044600F0C2F80546601C02D00448F7
:100C00000078241800F0BAF8401BA042FAD370BD57
:100C100000000020F0B5002303249AE02A460125B5
:100C20009D402A407ED00E79B607B60F012E01D026
:100C3000022E16D186682746B4465E00B646B740F7
:100C40006646BE43B446CF687646B74066463743ED
:100C500087604668AE430D79ED06ED0F9D40354344
:100C600045600D79ED43AD0708D0C5685F002646A5
:100C7000BE40B5438E68BE402E43C6600D79AD07B9
:100C8000AD0F022D0ED1DD08AD002D18AC462D6A3A
:100C90005E07F60E0F27B740BD430F69B7402F43DD
:100CA00065462F6205685F002646BE40B5430E7953
:100CB000B607B60FBE402E4306604D68AD03AD0FBC
:100CC00046D09E08264DB6007519AC462D6E9E077F
:100CD000F60E0F27B740BD4305273F07B84201D1A5
:100CE00000270FE01F4FB84201D101270AE01E4F35
:100CF000B84201D1022705E01C4FB84201D10327B9
:100D000000E00527B7402F43154D664637662D682E
:100D10004E689543F60200D51543114F3D607D683E
:100D2000954300E014E04E68B60200D515437D609F
:100D30000B4D80356E684F689643BF0300D5164350
:100D40006E602E684F689643FF0300D516432E60F1
:100D50005B1C0A681546DA4000D05FE7F0BD000072
:100D6000001802400004005000080050000C005021
:100D7000002A01D081617047816270470148806814
:100D8000704700000000002002488168027889183E
:100D9000816070470000002010B5084800240168F9
:100DA000821511430160204600F00AF8002801D0A6
:100DB000012401E000F028F8204610BD0020024088
:100DC00070B50F4E002431780546002915D07D20DE
:100DD000C000FFF78BF901460A480068FFF786F963
:100DE00000F048FC002808D1042D06D20022294634
:100DF000401E00F02BF8756000E00124204670BD15
:100E0000000000200C00002008B5094801680122FC
:100E10001143016000681040009005484038C26BE3
:100E200001040A43C263C06B0840009008BD000083
:100E300040100240002805DBC106C90E0120884091
:100E4000014908607047000000E100E010B502F0C1
:100E500095FB10BD10B50F4C21680322520291433F
:100E600001432160C11FFF39FA390ED10A4806211A
:100E7000006848430949FFF739F9401C02E000289F
:100E800005D0401E61694905F9D4002010BD03203A
:100E900010BD0000007000400C00002040420F0018
:100EA000FEB5044600680027704D714E800355D58D
:100EB00000200090F06BC00007D4F16BA80501433F
:100EC000F163F16B0140012000906A4801688215CE
:100ED00011430160FFF752FF019005E0FFF74EFF5D
:100EE0000199401A022825D862480068C005F5D546
:100EF000E8690321090208400FD0216B81420CD020
:100F0000E86903210902EA698843012109040A43C7
:100F1000EA61EA698A43EA61E861C0070FD0FFF736
:100F20002DFF019008E0FFF729FF0199411A52486F
:100F3000814201D9032709E0E8698007F3D5E86910
:100F4000032109028843216B0843E86100980028C7
:100F500004D0F16B012000078143F1632078C007C2
:100F600005D068696168800880000843686120785E
:100F7000800705D568690C218843A168084368612A
:100F80002078C00606D56869032189028843E16894
:100F9000084368612088800506D5686903218904B3
:100FA0008843A169084368612088400506D56869BF
:100FB000032109058843E1690843686120788006B8
:100FC00006D56869032109038843216908436861DC
:100FD000208840040ED56869216A80008008084393
:100FE00068610121206A8907884203D1F06889136A
:100FF0000843F0602068000305D5686940218843F4
:10100000616A08436861206881021C480BD56969E0
:101010008210A36A914319436961A16A914202D186
:10102000F1680143F160216849020AD56969E26A01
:10103000814311436961E16A814202D1F168014350
:10104000F160208800050FD5686903218903884372
:10105000616908436861012160698903884203D19D
:10106000F06889000843F0603846FEBD4010024039
:1010700000100240007000408813000000000001D2
:10108000F8B50F46060043D04D4D28684007400F85
:10109000B84213D22868C008C00038432860FFF760
:1010A0006DFE044605E0FFF769FE011B45488142DD
:1010B00061D828684007400FB842F4D13068424CEC
:1010C00081070DD5400704D5A0680721090308430F
:1010D000A060A0680F2109028843B1680843A0609E
:1010E0003078C00732D0706801280AD002280BD0AF
:1010F00000280FD03449403103280ED0C969890730
:1011000004E02168890301E021688901002906DBE8
:101110000120F8BD21684905F8E7096AEFE7A168F1
:10112000C908C9000143A160FFF728FE009006E04E
:10113000FFF724FE0099411A224881421BD8A0687B
:10114000382108407168C9008842F1D128684007F9
:10115000400FB84217D91A480168C908C900394375
:101160000160FFF70BFE054607E0FFF707FE411B96
:101170001448814201D90320F8BD11480068400796
:10118000400FB842F1D13078400706D5A06807215A
:1011900009038843F1680843A06000F031F8A168B2
:1011A0003C2289091140094A515CC906C90EC84050
:1011B0000749086007480068FFF702FEF8BD000015
:1011C000002002408813000000100240084200087E
:1011D0000C000020040000200648074900688968C8
:1011E000064A4904490F8900515CC906C90EC84026
:1011F000704700000C000020001002404842000828
:1012000010B5204CA068204A8006400F16D0A06878
:101210008006410F501001290FD0A1688906490F9F
:10122000022912D0A0688006400F042823D0A068AD
:101230008006400F032821D0002010BD2068012126
:101240008004400F8140104612E0E1688B07E1689E
:101250009B0F4906490F491C032B00D01046FEF78F
:1012600045FFE1684904490E4843E168490F491CBC
:10127000FEF73CFF10BD0120C00310BD7D20000221
:1012800010BD0000001002400024F400F8B5040076
:101290007ED020783827C007ED4D002846D0A868BA
:1012A000E96838408907890F102802D008280BD038
:1012B00001E0032908D001206268000482420AD1BB
:1012C00029680143296015E0286880032ED56068ED
:1012D0000028DDD02AE0052301211B0489049A425D
:1012E0002A6802D10A432A60EAE782432A60286812
:1012F00088432860606800280CD0FFF73FFD064651
:1013000004E0FFF73BFD801B642873D82868800346
:10131000F7D50BE0FFF732FD064604E0FFF72EFDA0
:10132000801B6428F1D828688003F7D420788007D0
:1013300069D5A868E96838408A070721920FC90271
:10134000102802D0002813D001E0022A10D0E06853
:10135000002846D028688843216908432860286807
:10136000FF21013108432860FFF708FD06462CE005
:101370002A68520502D5E268002A89D06A687F236C
:101380001B029A4363691B021A436A60002800E04B
:101390008DE00ED1286888432169084328602868B9
:1013A00001218004400F8140AA48FEF79FFEAA4910
:1013B0000860AA480068FFF703FD002877D122E003
:1013C000FFF7DCFC801B02289FD828684005F7D572
:1013D00068687F21090288436169090208436860DF
:1013E00011E02968FF20013081432960FFF7C6FC26
:1013F000064605E098E0FFF7C1FC801B022884D870
:1014000028684005F7D42078954E00072ED5A868A7
:101410008006400F03280AD0A0690028306A16D041
:10142000012108433062FFF7A9FC07460BE0306A50
:1014300080071BD5A06900289FD017E0FFF79EFC0E
:10144000C01B022870D8306A8007F7D50EE040082C
:1014500040003062FFF792FC074604E0FFF78EFC85
:10146000C01B022860D8306A8007F7D42078400774
:101470006CD5A86800278006400F042818D0E86BB8
:10148000C00008D4E96B012000070143E963E96B60
:1014900001400127009173480168C90519D401680A
:1014A000821511430160FFF769FC00900DE083E0B5
:1014B000F06980074AD5A06800287DD046E0FFF794
:1014C0005DFC0099401A02282ED866480068C005C5
:1014D000F5D5A168012910D004200529F16911D0A2
:1014E00049084900F161F1698143F161A068002870
:1014F00016D0FFF743FC00900EE0F069012108438D
:10150000F061F3E70143F161F7E7FFF737FC00997A
:10151000411A5548814267D8F0698007F5D50EE039
:10152000FFF72CFC009007E05EE0FFF727FC009936
:10153000411A4D48814257D8F0698007F5D4002FF1
:1015400004D0E86B012109078843E863E0690028BB
:101550007BD0A9688906490F02294FD0012636069B
:101560000228286805D0B0432860FFF707FC04462E
:101570003CE0B0432860FFF701FC074604E0FFF7BA
:10158000FDFBC01B02282FD828688001F7D4616AB0
:10159000206AA26A0843E16A120211430843216BE0
:1015A0000843616B0843E968304A11400843E8602A
:1015B00028683043286000E045E0E8680121090719
:1015C0000843E860FFF7DAFB044604E0FFF7D6FBC8
:1015D000001B022808D828688001F7D535E0FFF7FE
:1015E000CDFB001B022801D90320F8BD286880012B
:1015F000F5D4E8681E490840E86026E00128F4D0E8
:10160000E868226A8107890F91421CD17021626AC1
:101610000140914217D17F21A26A090201401202C2
:10162000914210D11F214904E26A014091420AD13E
:1016300007214906226B0140914204D1400F616BA2
:101640004007884201D00120F8BD0020F8BD00000D
:10165000001002400024F4000C00002004000020D0
:101660004010024000700040881300008C80C111BF
:10167000FCFFFEEE094910B5401E884201D9012049
:1016800010BD074C60610321081F01F077FF0020A7
:10169000A06107202061002010BD0000FFFFFF00B7
:1016A00000E000E010B5014680310A79012A15D02A
:1016B00001220A7124228A6002681368146864088F
:1016C00064001460012252079343002242660068BE
:1016D0000360202088600A71104610BD022010BDF2
:1016E0007047704770B5044605468034207901285C
:1016F0001AD0012020712420A060286806680268A2
:101700005208520002602868826807235B069A43E9
:101710000A438260284601F043FB286806602020C7
:10172000A0600020207170BD022070BD70B504461D
:10173000054680342079012819D001202071242009
:10174000A060286806680268520852000260286893
:101750008268D200D2080A438260284601F020FB4A
:10176000286806602020A0600020207170BD022043
:1017700070BD70477047F8B5054604468035A868C7
:10178000EE6821688A6810271206002A1BDA2128D1
:1017900019D1EFF31080012282F310888A68802328
:1017A0009A438A6080F31088E06F002808D0FFF722
:1017B000B1F8002804D0E06FFFF724F9202824D0E6
:1017C000204601F069FC2168886840061BD5222E5E
:1017D00019D1EFF31080012282F310888A68402328
:1017E0009A438A6080F310882868002808D0FFF7A1
:1017F00091F8002804D02868FFF704F9202804D0C5
:10180000204601F017FC0020F8BD2F610320F8BD31
:1018100070470000F8B503680446D96918689A68EB
:10182000B44D0E462E4025468035002E75D0B24E62
:10183000B24F1640074037436ED0CF0706D0C705DA
:1018400004D501271F622B693B432B618B0708D509
:10185000D30706D0276802233B622B6904273B434A
:101860002B614B0708D5D30706D0276804233B62BA
:101870002B6902273B432B610B0709D5202303402B
:10188000334305D02668082333622E691E432E6138
:101890000B0509D5430107D501232668DB02336216
:1018A0002B69202633432B612B69002B42D08906FC
:1018B0000AD520210840C9050A40104304D0616FB1
:1018C000002901D02046884728692168896849068F
:1018D00002D42821084232D0204601F0ABFB216817
:1018E0008868400627D5EFF31080012282F3108824
:1018F0008B68402293438B6080F31088286800280F
:1019000019D07F4981632868FFF73EF8002811D07D
:101910002868816B0DE000E017E08E0615D50127E1
:1019200020263F07064017403E430ED0616FB5E0CA
:1019300020468847F8BD2046FFF76AFFF8BD2046DD
:10194000FFF766FF00202861F8BDE66E012E7DD10D
:10195000CE067BD5C60679D510221A622368986810
:10196000264640064036002849DA2968086840685B
:101970000004000CE8D0B78B8742E5D9F0830868F3
:101980000068800634D4EFF31080012181F31088C1
:1019900019681701B943196080F31088EFF31080BC
:1019A000012181F3108821688B685B085B008B60E4
:1019B00080F31088EFF31080012181F310882168F3
:1019C0008B684027BB438B6080F310882020E86041
:1019D0000020E066EFF31080012181F31088216878
:1019E0000B6893430B6080F310882868FEF792FF22
:1019F00002202067B08BF18B401A81B235E0B08BAA
:101A0000F18B401A81B2F08B00289DD000299BD029
:101A1000EFF31080012686F310881E68FF27213718
:101A2000BE431E6080F31088EFF31080012383F320
:101A3000108823689E68304FFF433E409E6080F3CD
:101A400010882020E8600020E06600E011E0606778
:101A5000EFF31080012383F3108823681D689543FA
:101A60001D6080F31088022020672046FFF738FEB3
:101A7000F8BDCE0208D5560206D501200005186231
:101A80002046FFF777FEF8BD0E060BD5012780260E
:101A9000FF0506403A40164304D0A16F002900D04C
:101AA00046E7F8BD4A0614D5420612D52046EFF3A4
:101AB0001081012282F310881A684024A2431A6020
:101AC00081F310882021A9600021816700F075F959
:101AD000F8BD0A0205D5420003D52046FFF749FEAE
:101AE000F8BDC901FCD50028FADA2046FFF7F9FD58
:101AF000F8BD00000F0800000100001020010004E4
:101B0000152F000870B5040005D025468035A8685B
:101B1000002802D006E0012070BD00202871204678
:101B200000F026F82420A8602068016849084900D0
:101B30000160204601F0CEFA0128EDD0A06A00280D
:101B400002D0204601F04EF9206841680922D202F5
:101B500091434160206881682A2291438160206816
:101B60000168012211430160204601F0A1F970BD16
:101B7000F0B593B0074614210DA8FEF716FB3421EB
:101B80006846FEF712FB3A4938683A4D01260024B0
:101B9000884245D1684600960194FFF781F90028F4
:101BA00001D0FEF7B5FE33484030026801218903B9
:101BB0000A430260006808401290696B04200143E8
:101BC0006963696B0F940140129130200D900220DF
:101BD0000E900DA9119610942748FFF71BF8284D79
:101BE00026482860AC603220EC6068606C61AC61B3
:101BF000EC6180202C6228612846FEF761FF0028F6
:101C000001D0FEF785FE8020C551002211461B2021
:101C1000AF62FFF71BF91B20FFF70CF913B0F0BD03
:101C200018498842FAD10227684600970294FFF7C4
:101C300037F9002801D0FEF76BFEE96B0120400464
:101C40000143E963E96B01401291686B30436863BB
:101C5000686B0F96C007C00F12900C200DA911964B
:101C6000109481C1052000070839FEF7D3FFD5E79E
:101C700000380140001002400008005008000240F7
:101C80004C0100200044004070B58C231B58202BD1
:101C900001D0022070BD00290BD0002A09D00124F8
:101CA00083682403A34206D10369002B03D1CB0729
:101CB00001D0012070BD0023C3660B4B04689C4219
:101CC0000ED063681B020BD5EFF31083012585F35B
:101CD000108825680126B6063543256083F31088F1
:101CE00001F014FB70BD0000008000407047704799
:101CF000FFB5074604468037B86883B00D462028F4
:101D000002D0022007B0F0BD002D0CD005980028AD
:101D100009D00120A1680003814206D12069002872
:101D200003D1E80701D00120ECE700203861212031
:101D3000B860FFF723F80190264640360598B08238
:101D40000598F0820120A1680003814202D1206938
:101D5000002802D00295002515E00020029012E034
:101D600000228021204601F027FB002818D102988C
:101D7000002817D02168007888620298401C0290E1
:101D8000F08A401EF082F08A019B0028069800909D
:101D9000E6D100224021204601F00EFB002808D0A9
:101DA0000320AFE728882168C005C00D8862AD1CFC
:101DB000E6E72020B8600020A4E77047FEE70000B7
:101DC000F0B5FFB0FFB004460146C9B06E48FEF75B
:101DD00012FA6E490120087022466DA1022000F01F
:101DE0001BFE00F041FD0125AD020024002863D058
:101DF0006AA1654800F016FC002839D1294604ADD7
:101E00000294039428460194FEF7CFF963A15E483B
:101E100000F0B8FCC1B202A803AC01AE03292BD07C
:101E2000042925D10090022300225CA1564800F02D
:101E300009FC0223012259A15348009400F002FC3E
:101E4000022334461A4655A14F48009600F0FAFB8B
:101E50000023032251A14C48009500F0F3FB0398A6
:101E6000002825D023462A460021029800F0B6FC1F
:101E70007FB07FB049B0F0BD00900223002247A19F
:101E8000414800F0DFFB0223012244A13E480094B8
:101E900000F0D8FB022334461A4640A13A48009687
:101EA00000F0D0FB0398002802D023460022DBE795
:101EB000002223460121D8E700F0D0FC0028D7D02B
:101EC00038A1314800F0AEFB0028D1D1294606AD3B
:101ED00004940594029428460394FEF766F9FFAF34
:101EE000FF211C3701313846FEF75FF904A80023B3
:101EF00000901A462BA1244800F0A4FB6846017C00
:101F000002A803AE53292AD05229B1D1009002234E
:101F1000012224A11C4800F095FB02231A4621A1AE
:101F20001948009600F08EFB3C46002303221DA1B9
:101F30001548009700F086FB0023042219A11248DF
:101F4000009500F07FFB2846FEF74EF901902346EE
:101F500000950120039A029900F0A8F888E7009004
:101F6000022301220FA1084800F06CFB02231A464D
:101F70000CA10548009600F065FB00230094019435
:101F80001846039A0299E7E7A809002010000020EC
:101F900041547273703A2025730000002B4C495055
:101FA000555243002B4C4D515454555243000000A0
:101FB00010B50A4604460146044B0548FFF798FE53
:101FC000224604A1142000F027FD10BDFFFF0000F1
:101FD0002400002025730A0010B50B494978002918
:101FE0000CD0012901D0022907D108A1FEF7E8F899
:101FF000024607A1002000F00FFD10BD08A100203F
:1020000000F00AFD10BD0000100000203A000000A2
:102010004154204552524F5225730D0A00000000D2
:102020004154204552524F520D0A00000EB513A2E2
:1020300007CA6B4607C36846FEF7D6F881B2684602
:10204000FFF7B6FF104800F0F1FB002801D0022096
:102050000EBD0EA10F48FEF7B3F8002804D00D48BE
:10206000FFF7BAFF04200EBD7D200001FEF7E3FB61
:1020700009A1022000F0D0FC00200EBD41542B4CE1
:102080005253540D0A000000881300004552524F6D
:1020900052000000A80900204D6F64756C65205245
:1020A00065736574204F4B210D0A000070B5049CC8
:1020B0001D4600280FD001280DD107A1032000F0F4
:1020C000ABFC2A460AA1032000F0A6FC22460EA182
:1020D000032000F0A1FC70BD6D7174742072656303
:1020E00076206D73676964203A2025640D0A00002C
:1020F0006D717474207265637620746F70696320EB
:102100003A2025730D0A00006D71747420726563A6
:10211000762064617461203A2025730D0A00000066
:1021200030B5A3B00C461546802103A8FEF73DF854
:10213000002001900290002C17D0E01DFF30FA30F3
:10214000E31D0090F933224629A103A801F0D4F938
:1021500003A8FEF749F881B203A8FFF729FF2C482E
:1021600000F064FB00281CD104E02AA103A801F0C0
:10217000C3F9EDE72CA12E48FEF722F8002805D080
:102180002B48FFF729FF042023B030BD29A12848A0
:10219000FEF716F8002806D1274800F047FB002874
:1021A00001D00220F0E701A800900223012223A120
:1021B0001F4800F047FA02A8022300901A461FA108
:1021C0001B4800F03FFA002D01D0029828700198BA
:1021D000002808D00128D7D12A781BA1002000F0C0
:1021E0001BFC0020D0E721A1022000F015FCF8E73D
:1021F00041542B4C4D515454434F4E4E3D302C22A4
:102200002573222C222573222C222573220D0A00ED
:102210003075000041542B4C4D515454434F4E4E99
:102220003D300D0A000000004552524F52000000A0
:10223000A80900203A000000881300002B4C4D51E3
:102240005454434F4E4E00004D51545420636F6E12
:102250006E656374206661696C65642120726561D6
:10226000736F6E3A2025640D0A0000004D515454DE
:1022700020636F6E6E65637420737563636573733B
:10228000210D0A0030B5A3B00C461546802102A8E6
:10229000FDF78BFF00200190002C13D06420035B1E
:1022A000224624A102A801F027F902A8FDF79CFF0D
:1022B00081B202A8FFF77CFE254800F0B7FA00289B
:1022C00019D102E0012023B030BD22A12348FDF73F
:1022D00077FF002804D02148FFF77EFE0420F2E7B4
:1022E0001FA11E48FDF76CFF002806D11D4800F015
:1022F0009DFA002801D00220E5E701A80090022302
:10230000012219A1154800F09DF9002D01D0019876
:1023100028700198401C08D016A1022000F07CFB18
:102320001A49012008700020CDE719A1002000F013
:1023300073FBF8E741542B4C4D5154544F50454ECC
:102340003D302C222573222C25640D0A000000004C
:10235000007102004552524F52000000A8090020AF
:102360003A000000881300002B4C4D5154544F503C
:10237000454E00004D515454206F70656E207375AA
:102380006363657373210D0A0000000012000020D2
:102390004D515454206F70656E206661696C6564A0
:1023A000210D0A00FFB5FFB0FFB0A7B0FFA80C4693
:1023B0008430092105AFC66B1546C9013846FDF7C3
:1023C000F4FE00200490002C1FD0002D1DD0FFA88B
:1023D0008430016A806B0090A21C029103950192E7
:1023E000FF200330035D228823A1384601F084F8E2
:1023F0003846FDF7F9FE81B23846FFF7D9FD284887
:1024000000F014FA00281BD104E001207FB07FB057
:102410002BB0F0BD23A12548FDF7D2FE002804D043
:102420002248FFF7D9FD0420F0E721A11F48FDF75E
:10243000C7FE002806D11F4800F0F8F9002801D097
:102440000220E3E704A8022300901A461AA11748C5
:1024500000F0F8F8002E01D004983070049800289D
:1024600007D0012805D017A1002000F0D5FA0020E0
:10247000CCE71AA10220F8E741542B4C4D5154549B
:102480005055423D302C25642C25642C25642C228B
:102490002573222C25642C222573220D0A000000AE
:1024A000307500004552524F52000000A80900202C
:1024B0003A000000881300002B4C4D5154545055E5
:1024C000420000004D515454207075626C6973686D
:1024D000206661696C6564210D0A00004D515454F9
:1024E000207075626C6973682073756363657373BC
:1024F000210D0A0030B5A3B00C461546802102A874
:10250000FDF753FE00200190002C16D0FF20033071
:10251000005D00902288A31C21A102A800F0ECFF1E
:1025200002A8FDF761FE81B202A8FFF741FD254830
:1025300000F07CF9002819D102E0012023B030BD61
:1025400021A12348FDF73CFE002804D02048FFF7D6
:1025500043FD0420F2E71FA11D48FDF731FE0028CE
:1025600006D11D4800F062F9002801D00220E5E7FD
:1025700001A8022300901A4618A1154800F062F83D
:10258000002D01D0019828700198002805D017A1CE
:10259000002000F041FA0020D0E71BA10220F8E75C
:1025A00041542B4C4D515454535542554E53554262
:1025B0003D302C302C25642C222573222C25640DD3
:1025C0000A000000307500004552524F52000000D2
:1025D000A80900203A000000881300002B4C4D5140
:1025E0005454535542554E53554200004D51545486
:1025F00020737562736372696265206661696C65D8
:1026000064210D0A000000004D515454207375627E
:102610007363726962652073756363657373210DFB
:102620000A00000010B5002807D0002905D0FDF7EA
:10263000C7FD002803D0002010BDFF2010BD0520DD
:1026400010BD0000FFB581B006460A9815460C463D
:10265000002817D0002E15D0002C13D03046FDF7DF
:10266000AFFD002810D02C21801CFEF7E8F8401C9C
:10267000C0B285420FD930A1002000F0CDF906206C
:1026800005B0F0BD0120FBE7224633A1002000F099
:10269000C3F90520F4E739A13046FDF791FD401C50
:1026A000002604466D1C08E0401C044634A1FDF7DA
:1026B00087FD00281BD0761CF6B2AE42F4D3071B70
:1026C000781CC6B2304601F09FFC050014D00421EE
:1026D000FDF76BFD3A4621462846FDF74DFD04986F
:1026E00000280BD001281AD002281FD119E019A107
:1026F0002046FDF765FDE2E70320C1E728782228A0
:1027000004D1A8192038807F222805D032462946D6
:102710000A98FDF731FD09E0F21E691CF8E7042272
:10272000F5E72846FDF770FD0A990860284601F094
:10273000CFFB0020A4E70000526563656976652041
:102740004552524F5220706172616D20696E207245
:1027500065706C790D0A00004E6F206B6579776F9C
:102760007264203A20257320666F756E6420696E4E
:10277000207265706C790D0A000000003A000000BC
:102780002C00000010B50C4600280CD0002C0AD0FC
:10279000FDF716FD002808D02C21801CFEF74FF80D
:1027A000401CC0B210BDFF2010BD224602A1002077
:1027B00000F032F9F7E700004E6F206B6579776F14
:1027C0007264203A20257320666F756E6420696EEE
:1027D000207265706C790D0A0000000010B50029A8
:1027E00007D1002A06D01346024605A1022000F0B8
:1027F00013F910BD08A1032000F00EF910BD000070
:10280000536F636B65745B25645D20726563763A14
:102810002025730D0A000000536F636B65742072EE
:1028200065637620646174610D0A000070B504462A
:10283000094D002028700120FEF7DAF9641E02D04D
:1028400028780028F7D02878012803D0002C00D160
:10285000022070BD002070BD1000002001480078EB
:1028600070470000120000200020064B01469E2207
:102870004A439A5C8A400243491CC9B2D0B2072934
:10288000F5D37047A811002000B51AA207CA85B079
:1028900002AB07C300206946087102A8FDF7A4FC3B
:1028A00081B202A8FFF784FB1548FFF7BFFF00289D
:1028B00002D0022005B000BD12A11448FDF780FC33
:1028C000002804D01148FFF787FB0420F2E710A18D
:1028D0000E48FDF775FC01A80090022300220DA10F
:1028E0000A48FFF7AFFE68460C490079487000209F
:1028F000E0E7000041542B434D45453F0D0A0000E1
:10290000881300004552524F52000000A8090020D1
:102910003A0000002B434D45450000001000002008
:102920003EB5040015A207CA6B4607C30DD0684622
:10293000FDF75AFC81B26846FFF73AFB1248FFF7F1
:1029400075FF002803D002203EBD01203EBD0FA12F
:102950001048FDF735FC002804D00E48FFF73CFB7B
:1029600004203EBD0CA10B48FDF72AFC811C14225B
:102970002046FDF701FC00203EBD000041542B4CD9
:10298000434349440D0A0000881300004552524F4A
:1029900052000000A80900203A0000001FB5040002
:1029A00014A207CA01AB07C30ED001A8FDF71CFC97
:1029B00081B201A8FFF7FCFA1148FFF737FF0028A2
:1029C00004D0022004B010BD0120FBE70DA10F4888
:1029D000FDF7F6FB002804D00C48FFF7FDFA0420B1
:1029E000F0E700231A460AA108480094FFF72AFEE0
:1029F0000020E7E741542B4C47534E3D320D0A006F
:102A0000A86100004552524F52000000A809002062
:102A10002B4C47534E0000000FB430B5FFB00124DB
:102A200082B00546640221466846FDF7BEFB032DD1
:102A300028D006DC002D09D0012D09D0022D0BD1A4
:102A40001EE0142D20D0152D06D11FE010A100E0AE
:102A500010A1684600F050FD6846FDF7C5FB80B246
:102A6000211A86AB6844859A00F05AFD69460AA08F
:102A700000F032FD7FB002B030BC08BC04B0184793
:102A800006A1E6E706A1E4E706A1E2E707A1E0E781
:102A90005B455D005B575D00257300005B495D0091
:102AA0005B445D005B54582D3E5D00005B52583C1A
:102AB0002D5D00007FB50025044600950195029527
:102AC0000395032802D3012004B070BD024616A16D
:102AD000684600F011FD6846FDF786FB81B2684646
:102AE000FFF766FA1448FFF7A1FE002801D0022084
:102AF000EAE712A11348FDF763FB002804D0114850
:102B0000FFF76AFA0420DFE70F48002C04D0012CFD
:102B100004D0022C06D103E0457003E0012100E05F
:102B2000022141700020CFE741542B434D45453DE4
:102B300025640D0A00000000881300004552524F22
:102B400052000000A8090020100000201FB500213D
:102B50000091019102910391002806D0012804D030
:102B6000042802D0012004B010BD02460EA1684620
:102B700000F0C2FC6846FDF737FB81B26846FFF7FC
:102B800017FA0D48FFF752FE002801D00220EAE7AD
:102B90000AA10C48FDF714FB0028E4D00948FFF710
:102BA0001BFA0420DFE7000041542B4346554E3DFD
:102BB00025640D0A00000000A86100004552524F34
:102BC00052000000A809002008B50848816B0122C6
:102BD00011438163806B1040002200901146092050
:102BE000FEF734F90920FEF725F908BD0010024070
:102BF00070B586B014216846FDF7D7FA1448426BC9
:102C000004210A434263426B0A400592416B20242F
:102C100021434163416B21400591416B01252943CB
:102C20004163406B05262840360705900022214667
:102C30003046FEF79DF80020029002200390019597
:102C4000009469463046FDF7E5FF06B070BD000010
:102C50000010024010B5184816490160E1214902F0
:102C6000416000218160C16001618161C1610162D7
:102C70000C22416242618162FEF744FF002801D0CC
:102C8000FDF746FE00210C48FEF750FD002801D05C
:102C9000FDF73EFE00210848FEF724FD002801D084
:102CA000FDF736FE0448FEF7FDFC002801D0FDF7D5
:102CB0002FFE10BD003801402400002010B5184838
:102CC00016490160E1214902416000218160C16033
:102CD00001618161C16101620C22416242618162D4
:102CE000FEF710FF002801D0FDF712FE00210C486E
:102CF000FEF71CFD002801D0FDF70AFE0021084860
:102D0000FEF7F0FC002801D0FDF702FE0448FEF7B4
:102D1000C9FC002801D0FDF7FBFD10BD00440040B8
:102D2000B8000020FEE77047704710B5FEF72CF89A
:102D300010BD30B593B038216846FDF736FA00254E
:102D400001200E950F95109540021195FEF782F81F
:102D50000224E001039000944020059008200A908E
:102D600080030B90079400020C90089400010495D6
:102D70000D9009956846FEF789FA002801D072B6D1
:102D8000FEE707200EA931C102210EA81195FEF71A
:102D900077F9002801D072B6FEE713B030BD704756
:102DA000F8B50446416E4034002915D000688168AA
:102DB000806809014D0F0A4E400F3746315C083FCD
:102DC000385CC000FDF792F96085785D715DC000E8
:102DD000FDF78CF92085F8BD01206085FAE7000039
:102DE0000042000810B5018DC90707D001684A6884
:102DF00001235B049A43C36A1A434A60018D890721
:102E000007D501684A6801231B049A43036B1A43E0
:102E10004A60018D490707D501684A6801239B0470
:102E20009A43436B1A434A60018D090707D501682D
:102E30004A680123DB039A43836B1A434A60018D7E
:102E4000C90607D50268916801231B039943C36B28
:102E500019439160018D890607D501688A680123AD
:102E60005B039A43036C1A438A60018D490612D5AD
:102E700003685A6801210905446C8A4322435A6059
:102E8000426C8A4207D10268516803235B0599436B
:102E9000836C19435160018D090607D501684A68A2
:102EA0000123DB04C06C9A4302434A6010BD00005A
:102EB000FEB506460025803604463561FDF75EFF07
:102EC000019020680068124F000709D50121009782
:102ED000002249052046019B00F06EFA00280DD122
:102EE0002068006840070BD5012100970022890562
:102EF0002046019B00F060FA002801D00320FEBDAF
:102F00002020B060F060E566256735710020FEBDC9
:102F1000FFFFFF0110B5806A002201464031CA83DD
:102F2000CA82FEF775FC10BDF8B5846A2046803071
:102F300081680546C668206880680027000600286A
:102F400006DA212904D156200753204600F0A4F8C0
:102F500020688068400606D5222E04D15E200753E3
:102F6000204600F067F828691021084328612046B0
:102F7000FEF74EFCF8BD70B501460968806A096825
:102F800000228906002938DB5E210A52EFF3108106
:102F9000012383F3108803681C68FF250135AC43C7
:102FA0001C6081F31088EFF31081012383F31088F4
:102FB00003689C68640864009C6081F31088EFF3E8
:102FC0001081012383F3108803689C684025AC437B
:102FD0009C6081F3108820238C210B50C16E012945
:102FE0000BD1EFF31081012383F3108803681C6871
:102FF0001025AC431C6081F310880267C16E012963
:1030000002D0FEF773FE70BD5C21095AFEF768FB23
:1030100070BD10B5806A01210167C16E012902D01F
:10302000FEF765FE10BD5C21095A4908FEF758FB02
:1030300010BD000010B5EFF31081012282F310885B
:1030400002681368FF242134A343136081F31088BE
:10305000EFF31081012282F31088026893680D4C0F
:103060002340936081F31088C16E01290BD1EFF3E7
:103070001081012282F31088026813681024A34390
:10308000136081F3108820228C210A500021C16630
:10309000416710BDFEFFFFEF10B5EFF31081012275
:1030A00082F3108802681368C024A343136081F37D
:1030B0001088EFF31081012282F310880268936870
:1030C0000124E405A343936081F31088202180301C
:1030D000816010BDF8B50446016880682269E56921
:1030E0001043626900262A4310437C4B0A687C4DDA
:1030F0002A4002430A602068416803221203914378
:10310000E268114341602168A069994201D0226AB6
:1031100010438A68734D2A4002438A602068C16A5E
:10312000626A090909011143C1626F4922686F4847
:103130008A420AD140698007800F2CD001283DD0F7
:10314000022828D0032825D122E069498A420AD1E1
:1031500040690C2108401ED004281CD008282BD020
:103160000C2817D114E063498A4223D062498A426D
:1031700020D09A420ED1416903208002014019D02B
:1031800001208002091A19D0091A15D0814201D1F3
:10319000082000E0102001255849594FED039A42BC
:1031A0003FD100280CD002280DD004280DD00828CB
:1031B00036D10EE00020EEE70220ECE70420EAE73B
:1031C000FEF70AF803E00D4603E0FEF719F80500E4
:1031D0007AD0606A4000395A28460091FCF786FF91
:1031E000676879007918814269D83903814266D3CA
:1031F000002328461946009AFCF78EFF020E0902AA
:103200000302780811431818002251413A4600235E
:10321000FCF782FF032109023A4A411A914251D92F
:103220004DE0E269AA4228D1002806D0022807D042
:10323000042807D0082842D108E0FDF7CDFF03E0BD
:103240000D4603E0FDF7DCFF05003DD0606A40005D
:10325000395A2846FCF74AFF616840004A0880183E
:10326000FCF744FF0146284A1039914227D8511CE7
:1032700001400007400F084324E0002806D0022840
:1032800007D0042807D0082819D108E0FDF7A4FFCB
:1032900003E00D4603E0FDF7B3FF050014D0606ABC
:1032A0004000395A2846FCF721FF61684A08801817
:1032B000FCF71CFF0146144A1039914201D901263E
:1032C00002E080B22168C86020460121403041857B
:1032D000018500206067A0673046F8BD008000408F
:1032E000F369FFCFFFF4FF110038014040100240A6
:1032F0000044004000480040004C00400024F4001E
:10330000E0410008FFFC0F00EFFF000070B504462D
:103310008165403082830020254680352861222146
:10332000E9602968002919D0204BCB622B6820491D
:1033300019632B681F495963296813468863A66D72
:103340002168324624312868FDF70CFC002805D09E
:10335000102028612020E860012070BD206900282D
:103360000CD0EFF31080012181F3108821680A68E6
:10337000FF2301331A430A6080F31088EFF31080B3
:10338000012181F31088226893680B43936080F3D6
:103390001088EFF3108081F3108821688A68402339
:1033A0001A438A6080F31088002070BD772F0008D0
:1033B00013300008292F0008FFB581B005461746D5
:1033C000044680350A9E54E0701C52D0FDF7D6FCAE
:1033D0000499401AB0422FD8002E2DD020680168E1
:1033E000490746D5C069C043000542D40120216881
:1033F000C0020862EFF31080012181F31088216878
:103400000B68FF22A13293430B6080F31088EFF327
:103410001080012181F3108821688A6852085200C7
:103420008A6080F310882020A860E860286100206E
:103430002871032005B0F0BDEFF31080012181F366
:10344000108821680A68FF23A1339A430A6080F339
:103450001088EFF31080012181F3108821688A68B9
:10346000520852008A6080F310882020A860E8602B
:10347000DDE72068C1690298884304D00020B84283
:10348000A2D00020D6E70120F9E7000010B50F48D0
:10349000FEF7C0F90D480068C169C943C90613D4D5
:1034A000102101620948FEF766F909480068406882
:1034B0000122D202101A84B206490448FEF7E4FB46
:1034C00021460448FEF77CFC10BD000024000020CB
:1034D0004C010020A80100200FB410B503A9044B33
:1034E000044A029800F03AF910BC08BC04B018472E
:1034F000B53E0008140000200FB410B504A9074B16
:1035000002AA039800F02AF9044602A9002000F05C
:10351000CCFC204610BC08BC04B01847AB3E0008E9
:103520007CB51546024600201C4600290BD0491EDA
:1035300000920191044B6A462146284600F00EF99C
:10354000009A002111707CBD953E00082021020CDC
:1035500001D010211046020A01D010460839020994
:1035600001D01046091F820801D01046891E42086A
:1035700001D0881E7047081A704700008307FF2299
:10358000DB0E9A408907090E9940002808DB830862
:1035900009489B001B18186890430843186070473F
:1035A0000007000F0838830804489B001B18D869DF
:1035B00090430843D861704700E400E000ED00E06C
:1035C000004870472000002002E008C8121F08C110
:1035D000002AFAD170477047002001E001C1121F94
:1035E000002AFBD170470000F0B51FB486B00998DF
:1035F000089A030D0021024314D05148514A18186B
:10360000504305141198012810981AD0281A401C0C
:1036100000264D4F4D49009601910490002812DA82
:10362000444211E01198012449A3012801D11098C6
:10363000C1430698119A84600360C26041600BB078
:10364000F0BD4042E4E70446210500203F4A001C4B
:1036500051410391029012E0E00707D032463B4609
:1036600001990098FCF7E8FE0191009032463B4634
:1036700010461946FCF7E0FE06460F466410002C83
:10368000EAD10498039B0028029A0999089806DA5F
:10369000FCF7D2FE019B009AFCF7CEFE05E0FCF79A
:1036A00033FF019B009AFCF72FFF04460E460022D1
:1036B000284BFCF7C1FF03D80020C043014607E0B8
:1036C0000022254B20463146FCF704FEFCF794FF10
:1036D000102409E0002C0ADB0A220023FCF71CFD61
:1036E000079B30321A55641E02460A43F2D111225A
:1036F000641C079B121B1C19119B012B03D0012377
:1037000008430ED10AE0084304D011201090002095
:10371000119077E71098151A6D1E0BE010988242F1
:1037200002DD00236D1C03E0824201DA00236D1EDE
:10373000002BEED0069811998260C16030C07EE700
:1037400001FCFFFF104D0000000014400000F03F9E
:10375000300000000000F0430000E03FFFB597B0EC
:103760000646002518E2252877D100242746FD4982
:10377000049400E00443761C32780120203A904003
:103780000842F7D130782A280ED00222307801463C
:103790003039092916D804990A2359433039401879
:1037A0001443761C0490F1E7189802C8049118900D
:1037B000002904DA01204003044348420490022017
:1037C0000443761C30782E2814D1042004437078EA
:1037D000761C2A2809D11898761C80C8189009E010
:1037E0000A214F43303FC719761C307801463039E3
:1037F0000929F5D930786C2810D006DC4C281AD06D
:1038000068280ED06A2817D104E0742813D07A28CB
:1038100012D110E00120400504430CE0012109050C
:1038200001E0032109050C437178814203D1012095
:1038300000052418761C761C3078119066280BD071
:1038400013DC58287DD009DC00287BD04528F6D031
:103850004628F4D047281AD1A5E118E0632835D0CE
:10386000642870D0652812D19DE170286CD008DCE6
:103870006728F1D069287BD06E280DD06F2806D13B
:10388000BAE073282ED0752871D0782859D01A9AAA
:10389000199990476D1C7EE16002400F022809D003
:1038A00003280DD00428189801680DD00D60001D64
:1038B000189070E11898EA1701680D604A60F6E701
:1038C000189801680D80F2E70D70F0E718986A46C5
:1038D00001781172001D18900020507202A800900B
:1038E000012005E0189802C8189000200091C043FC
:1038F00061070DD5002101E00199491C0191B942F0
:1039000012DA8142F8DB009A515C0029F4D10BE015
:10391000002101E00199491C01918142FADB019AE1
:103920000099895C0029F5D1019904981A9B471ADE
:1039300021463846199A00F097FA0199401945181E
:103940000BE04FE02CE113E04EE000980099007886
:10395000491C00911A9A199990470198401E0190AC
:10396000401CF2D1214638461A9B199A10E137E0E3
:103970000A200021009001916002410F022907D026
:10398000189A01CA1892C2179446032908D00AE06F
:103990001898C01DC108C90005C91891944607E0D0
:1039A00000B2C2179446042902D140B2C1178C4616
:1039B00000226146944506DA0A46002140429141C0
:1039C0008C462D2102E0210504D52B216A46117376
:1039D000012103E0E10701D02021F7E7029155E042
:1039E0000A200AE0102008E01020009000210420A6
:1039F00004430191082703E0082000210191009071
:103A00006002410F022907D0189A01CA18920022B9
:103A10009446032908D008E01898C01DC108C900C1
:103A200005C91891944603E080B2042900D1C0B2C0
:103A300000210291210729D51199702906D0009AF9
:103A40001021019B4A401A4305D00EE040216A46EE
:103A50001173012108E06146014306D030216A4616
:103A600011731199517302210291009A0821019B4F
:103A70004A401A430AD16146014301D1610705D585
:103A800030216A46117301217F1E02911199582934
:103A900004D035A10E910DA90D910DE037A1F9E7E4
:103AA0006146019B009AFCF737FB0E9B8C469B5CA2
:103AB0000D9A521E0D92137061460143F0D10D987C
:103AC00005A9081A20300190600703D501200004E1
:103AD000844300E001270198874201DD381A00E0A5
:103AE0000020019900904118029809180498401A82
:103AF0000490E00306D421461A9B199A049800F01A
:103B0000B3F94519002706E003A81A9AC05D199970
:103B100090476D1C7F1C02988742F5DBE0030CD5B3
:103B200021461A9B199A049800F09EF9451904E061
:103B30001A9A3020199990476D1C0099481E0090E0
:103B40000029F5DC08E00D980D990078491C0D91CD
:103B50001A9A199990476D1C0199481E01900029E5
:103B6000F1DC63E109280100303132333435363776
:103B700038396162636465660000000030313233B9
:103B80003435363738394142434445460000000059
:103B900000F05AF94519761C3078002800D0E2E58B
:103BA00028461BB0F0BD600700D406271898C01D3A
:103BB000C108C90048680A680831C30FDB071891BB
:103BC000190001D09CA108E0210501D59BA104E0CA
:103BD000E10701D09AA100E09AA1430011985B0887
:103BE000109165280CD006DC452809D046281DD048
:103BF000472841D141E0662818D067283CD13CE0F5
:103C00000021112F01DB112000E0781C01910090B0
:103C100008A911A8FFF7E8FC139905910021119A52
:103C200015927F1C12980197009150E00120C00767
:103C300003900120019008A9009711A8FFF7D4FC78
:103C4000139A149905920022119B009212981593D1
:103C5000059A0192002901D0104602E0791C401813
:103C60000190381A01D5019804E04042401E0090AE
:103C7000781C0190C01B029043E0012F00DA01275D
:103C80000021112F01DD112000E038460191009044
:103C900008A911A8FFF7A8FC13990591119A002112
:103CA000129815920091019721070CD40599B942F9
:103CB00001DB019900E00191012904DD159A491EFB
:103CC000515C302906D0B84201DA011D05DA012124
:103CD000029115E00199491EEDE7002805DC0099E5
:103CE000411800910199091A03E0019A411C91427F
:103CF00000DD01910099401A401C02900120C0078C
:103D00000390200706D402990198814202DB00202B
:103D1000C043029000206946C87707AF012103988D
:103D20000337C907884224D0022011902B2012901B
:103D3000039800280CDA404203902D20129007E0EF
:103D40000A210398FCF7D2F930317F1E03903970B5
:103D50001199481E11900029F2DC03980028EFD138
:103D6000791E129808703078202108404530BF1E17
:103D7000387006A8C01BC01D03901098007800285A
:103D800000D00120019941180298C0170918039822
:103D900009180498401A401E0490E00306D42146F6
:103DA0001A9B199A049800F05FF84519109800784A
:103DB000002803D01A9A199990476D1CE00324D566
:103DC00021461A9B199A049800F04EF845191CE0F8
:103DD0000098002807DB00990598884203DD1598B4
:103DE000405C199901E0199930201A9A904700987F
:103DF0006D1C401C00900298401E0290002804D1C7
:103E00001A9A2E20199990476D1C0199481E01900D
:103E10000029DDDC05E038781A9A7F1C1999904753
:103E20006D1C0399481E03900029F4DC21461A9B5F
:103E3000199A0498ACE600002D0000002B00000049
:103E40002000000000000000F8B5044600251E46D2
:103E50001746880404D405E039462020B0476D1C7D
:103E6000641EF9D52846F8BDFFB50446002581B08B
:103E70001E46C80301D5302700E02027880404D55A
:103E800005E038460399B0476D1C641EF9D52846F5
:103E900005B0F0BD4A68002A06D00A68531C0B60C2
:103EA00010704868401E486070470A68531C0B60D9
:103EB0001070704713B5044B012269460348FDF7A3
:103EC00017FF00981CBD0000FFFF0000B800002095
:103ED00010B5002823D0124B0022001F196803E000
:103EE000814203D80A4649680029F9D1002A0AD03C
:103EF0001368841A9C4204D1006818181060104698
:103F000002E0506000E01860002907D002680B1A38
:103F1000934203D10B68D21802604968416010BD1A
:103F200018000020EAB0FCF737FFFEF702FFFEF7AB
:103F30005FFEFEF749FEFEF78DFEFEF7BFFE2B4843
:103F400000680168102211430160142165A8FCF784
:103F50002CF920215DA8FCF728F9FEF767F8244822
:103F6000FCF769FC0220FEF7A5FDFEF78DFC65A8B5
:103F7000FEF714FD0120FEF7E9FD5DA8FEF7D0FC79
:103F800065AA1CA10220FEF747FD5DAA19A1022027
:103F9000FEF742FD7D24E4002046FCF74CFC68223D
:103FA000164943A8FCF7E8F81449FF2205326831A6
:103FB00002A8FCF7E1F8002243A91046FEF762F9D7
:103FC000002211461046FEF7ABF8002202A9104667
:103FD000FEF790FA00200090052309A202A90190A3
:103FE000FEF7E0F92046FCF703FEFBE72400002083
:103FF000B80B000025730D0A000000007440000893
:1040000068656C6C6F000000F0B50B30C108C9002A
:10401000144F0026144A0FE003688B420BD38B42E7
:1040200005D95C1A4318456830C3083B00E0436873
:10403000136002C004E0021D10680028ECD1304675
:10404000002803D13868002801D00020F0BD064ABE
:1040500006481060064A121AD208D20044C0012055
:104060003860D7E71C00002018000020041600204C
:1040700000180020746573742E6D6F737175697408
:10408000746F2E6F726700000000000000000000D7
:104090000000000000000000000000000000000020
:1040A0000000000000000000000000000000000010
:1040B0000000000000000000000000000000000000
:1040C00000000000000000000000000000000000F0
:1040D00000000000000000005B07000001002F6CE2
:1040E00069657264612F746573742F63687A000068
:1040F00000000000000000000000000000000000C0
:1041000000000000000000000000000000000000AF
:10411000000000000000000000000000000000009F
:10412000000000000000000000000000000000008F
:10413000000000000000000000000000000000007F
:10414000000000000000000000000000000000006F
:10415000000000000000000000000000000000005F
:10416000000000000000000000000000000000004F
:10417000000000000000000000000000000000003F
:10418000000000000000000000000000000000002F
:10419000000000000000000000000000000000001F
:1041A000000000000000000000000000000000000F
:1041B00000000000000000000000000000000000FF
:1041C00000000000000000000000000000000000EF
:1041D00000000000000000000000000000000100DE
:1041E000010002000400060008000A000C00100094
:1041F00020004000800000010101010307010000D0
:104200000804020408010101000000000000000091
:10421000000000000000000000000000000000009E
:10422000000000000000000001000000020000008B
:10423000030000000400000006000000070000006A
:10424000080000000900000000000000000000005D
:10425000000000000000000001000000020000005B
:104260000300000004000000004040404040404087
:104270004040414141414140404040404040404039
:1042800040404040404040404005020202020202DD
:10429000020202020202020202202020202020202C
:1042A0002020200202020202020290909090909040
:1042B00010101010101010101010101010101010FE
:1042C0001010101002020202020288888888888872
:1042D000080808080808080808080808080808085E
:1042E00008080808020202024000000069420008B3
:1042F000104300080000002024000000C83500081A
:104300003443000824000020DC1B0000D8350008DE
:104310000100000004000000000000000024F40080
:10432000000000000000000000000000000000008D
:044330000000000089
:04000005080000BD32
:00000001FF
